:020000040800F2
:10000000885100204D020008F51B000881180008E7
:10001000F11B0008810500086521000800000000B0
:10002000000000000000000000000000511D00085A
:100030008505000800000000011C0008491E00089A
:1000400067020008670200086702000867020008EC
:1000500067020008670200086702000867020008DC
:1000600067020008670200086702000867020008CC
:1000700067020008670200086702000867020008BC
:1000800067020008670200086702000867020008AC
:10009000670200086702000867020008670200089C
:1000A000670200082D1F00086702000867020008A9
:1000B000670200086702000867020008670200087C
:1000C000670200086702000867020008670200086C
:1000D000670200086702000867020008670200085C
:1000E000670200086702000867020008670200084C
:1000F000670200086702000867020008670200083C
:10010000670200086702000867020008670200082B
:10011000670200086702000867020008670200081B
:10012000670200086702000867020008670200080B
:1001300067020008670200086702000867020008FB
:1001400067020008670200086702000867020008EB
:1001500067020008670200086702000867020008DB
:1001600067020008670200086702000867020008CB
:10017000670200086702000867020008000000002C
:1001800067020008670200086702000867020008AB
:10019000670200086702000867020008670200089B
:1001A00067020008670200086702000800F002F812
:1001B00000F03CF80AA090E8000C82448344AAF1C5
:1001C0000107DA4501D100F031F8AFF2090EBAE8C3
:1001D0000F0013F0010F18BFFB1A43F0010318477B
:1001E000043F0000243F0000103A24BF78C878C1C3
:1001F000FAD8520724BF30C830C144BF04680C602D
:10020000704700000023002400250026103A28BF74
:1002100078C1FBD8520728BF30C148BF0B60704778
:100220001FB503F043FF1FBD10B510BD00F06EF900
:100230001146FFF7F5FF01F0E5FF00F08CF903B47C
:10024000FFF7F2FF03BC00F093F900000948804774
:1002500009480047FEE7FEE7FEE7FEE7FEE7FEE7A8
:10026000FEE7FEE7FEE7FEE704480549054A064BC0
:1002700070470000191F0008AD010008884B0020DE
:1002800088510020884D0020884D002053EA020C40
:1002900000F069802DE9F04B4FF00006002B1FBFE6
:1002A000B3FA83F503FA05F424FA05F65E4012BFAB
:1002B0001643B2FA82F502FA05F4C5F120051EBF15
:1002C00022FA05FC44EA0C04203556EA044C4FEAB5
:1002D000144418BF641C4FF000084FF0000990420E
:1002E00071EB030C39D3002919BFB1FA81F701FA78
:1002F00007F6B0FA80F700FA07F6C7F120071EBF2D
:1003000020FA07FC46EA0C062037B6FBF4FCA7EB04
:100310000507103F07F01F0BCBF120062CFA06F65D
:100320000CFA0BFB44BFB3460026202FA4BF5E4649
:100330004FF0000B5BEA060C08BF4FF0010B19EB06
:100340000B0948EB0608ABFB027C06FB02CC0BFB5F
:1003500003CCC01B71EB0C01C1E70B4602464146C2
:100360004846BDE8F08B13B5084318BF4FF0FF3087
:100370000146AFF30080BDE81C40704710B5431C38
:1003800002E010F8011B71B18107FAD14FF0013280
:1003900002C88C1A8C4314EAC211F9D0C01A0A069A
:1003A00003D0C01E10BDC01A10BD0A0401D0801EAB
:1003B00010BD0902FCD0401E10BD032A40F230805F
:1003C00010F0030C00F0158011F8013BBCF1020F96
:1003D000624498BF11F801CB00F8013B38BF11F817
:1003E000013BA2F1040298BF00F801CB38BF00F82E
:1003F000013B11F0030300F05780083AC0F0088079
:1004000051F8043B083A51F804CBA0E80810F5E78E
:10041000121D5CBF51F8043B40F8043BAFF3008071
:10042000D20724BF11F8013B11F801CB48BF11F8E6
:10043000012B24BF00F8013B00F801CB48BF00F8B6
:10044000012B704702F0FF0343EA032242EA024213
:1004500000F002B84FF0000200B5134694469646ED
:10046000203922BFA0E80C50A0E80C50B1F12001C7
:10047000BFF4F7AF090728BFA0E80C5048BF0CC075
:100480005DF804EB890028BF40F8042B08BF7047D3
:1004900048BF20F8022B11F0804F18BF00F8012B45
:1004A000704770477047704710B5203AC0F00B8016
:1004B000B1E81850A0E81850B1E81850A0E818505A
:1004C000203ABFF4F5AF5FEA027C24BFB1E81850D0
:1004D000A0E8185044BF18C918C0BDE810405FEA32
:1004E000827C24BF51F8043B40F8043B08BF7047AE
:1004F000D20728BF31F8023B48BF11F8012B28BFB3
:1005000020F8023B48BF00F8012B7047754600F009
:100510002BF8AE4605006946534620F00700854695
:1005200018B020B5FFF7A0FEBDE820404FF0000650
:100530004FF000074FF000084FF0000BAC46ACE85E
:10054000C009ACE8C009ACE8C009ACE8C00921F0BA
:1005500007018D46704710B50446AFF30080204672
:10056000BDE81040FFF76BBE00487047E800002070
:1005700001491820ABBEFEE72600020070470000CC
:10058000FEE7000070470000EFF3108072B600BF76
:10059000FEE700002DE9F04F82B000F13E4242F24A
:1005A000004502F1FF77C4F202050A2243F6004E2D
:1005B0004FEAB726A84208BF0922C4F2010E092E4D
:1005C00038BF4FEAB7220125002600274FF0000868
:1005D000009208E008F101080437B8F1100F06F1A5
:1005E000020600F0A7800C6805FA08F914EA090F62
:1005F000F0D0D1F804B003220BF0030CACF10104ED
:10060000B240012C6FEA020A10D88268CC6802EA74
:100610000A02B440224382604268CBF3001422EA0B
:10062000090204FA08F42243426005E0BCF1030F1A
:1006300002D14FF0030C20E0C2688C6802EA0A0283
:10064000B4402243BCF1020FC26016D16FF0030226
:1006500002EA58020244D2F820C007F01C050F231A
:100660000C69AB402CEA030304FA05F52B43136233
:10067000D1F804B001250BF0030C02680CFA06F364
:1006800002EA0A021A431BF4403F0260A2D0002291
:1006900043F644030192C4F202031A684FF6084C71
:1006A00042F480421A601A68CFF6FF7C02F480425E
:1006B0000192019A28F00302724452F80C3007F0BC
:1006C0000C050F24AC40A343009C04FA05F52B4312
:1006D00042F80C30DEF808204B6842EA090543F680
:1006E0000C4CDC0258BF22EA0905CEF80850C4F2CF
:1006F000010CDCF800209C0242EA090558BF22EAFE
:100700000905CCF80050DEF804209C0342EA0905F4
:1007100058BF22EA0905CEF80450DEF80020DB03BA
:1007200042EA090558BF22EA0905CEF80050012522
:1007300050E700BF02B0BDE8F08F0000002A08BFFC
:10074000090481617047000044F28C40C2F200004D
:100750000068704740F2000044F28C41C2F2000091
:10076000C2F2000100780A68104408607047000077
:1007700080B543F60040C4F20200016841F4007104
:100780000160016841F480610160016841F4807199
:100790000160032000F0C4F80F2000F005F800F01D
:1007A0005DF8002080BD0000B0B586B0002543F69E
:1007B00044010195C4F202010A68044642F00102B4
:1007C0000A60096801A801F00101019101996946D7
:1007D00000F066F900F098F94DF683614000C4F22C
:1007E0001B31A0FB01014FF0FF3000EB914140F2C3
:1007F000B0200022C2F20000C4F2010240F2E7334E
:10080000C0E90021C0E902530561856100F03EFDA9
:10081000054618B1284606B0B0BD00BF40F2B02072
:10082000C2F2000000F062FD05460028F2D1192056
:1008300000F036F80F2C0DD8192021460022002593
:1008400000F042F840F20400C2F2000004602846C2
:1008500006B0B0BD0125284606B0B0BD82B000206C
:1008600043F640010190C4F202014A6842F480421A
:100870004A604A6802F480420192019A0090086836
:10088000002240F08050086008680F2100F080507E
:10089000009000986FF0010002B000F015B8000061
:1008A000002848BF7047C1B200F01F00012202FAC1
:1008B00000F04EF20012CEF2000242EAD10121F025
:1008C000030108607047000010B54EF60C5CCEF2D4
:1008D000000CDCF80030C3F3022E8EF00704042C69
:1008E00028BF0424BEF103034FF0FF3E0EFA04F4C8
:1008F00038BF0023A14399400EFA03F39A431143F2
:1009000000F00F0200F160430901043A03F564436B
:100910006244002848BF02F10C03197010BD0000AA
:100920004EF60C51CEF200010A684FF6FF031A4052
:1009300060F30A2242F0806040F0FD70086070476A
:100940002DE9F041002800F08B8043F60808C4F23E
:1009500002080446D8F8F8030D4600F00F0088425C
:1009600007D288F8F853D8F8F80300F00F00A8422F
:1009700076D12068810717D5410705D5D8F8001032
:1009800041F4E051C8F80010010705D5D8F800106F
:1009900041F46041C8F80010D8F80010A26821F0B6
:1009A000F0011143C8F80010C0073FD1D8F8F80390
:1009B00000F00F00A84207D988F8F853D8F8F803D8
:1009C00000F00F00A8424BD12068410707D5D8F8A6
:1009D0000010E26821F4E0511143C8F8001000074C
:1009E00008D5D8F80000216920F4604040EAC10031
:1009F000C8F8000000F09CF8D8F8001044F2C602D5
:100A0000C1F30311C0F60002515C40F2080220FA63
:100A100001F140F20400C2F200000068C2F20002DC
:100A20001160FFF7C1FE0020BDE8F0816068811E03
:100A3000022907D258F8081C89015CBF0120BDE8D3
:100A4000F08111E0012807D158F8081C89035CBF28
:100A50000120BDE8F08107E058F8081C890703D49D
:100A60000120BDE8F08100BFD8F8001021F003019B
:100A70000843C8F80000FFF767FE064641F28837D2
:100A8000D8F80000616800F00C00B0EB810F8DD049
:100A9000FFF75AFE801BB842F2D90320BDE8F0816F
:100AA0000F22026043F60802C4F20202136803F048
:100AB00003034360136803F0F0038360136803F4D7
:100AC000E053C360D2F800C04FF4E05303EADC0304
:100AD0000361D2F8F80300F00F00086070470000CF
:100AE00040F2080043F60801C2F20000C4F202011D
:100AF0000068096844F2D602C1F38221C0F6000200
:100B0000515CC8407047000040F2080043F60801FD
:100B1000C2F20000C4F202010068096844F2D60281
:100B2000C1F34231C0F60002515CC840704700007A
:100B300010B543F60404C4F20204606800F00C012E
:100B400042F200400829C0F2F40007D0042918BF7F
:100B500010BD41F20020C0F27A0010BD216801F002
:100B60003F02216823684902C3F3881106D4A1FB20
:100B700000010023FFF78AFB07E000BF41F20020DD
:100B8000C0F27A004843B0FBF2F021680222C1F3C0
:100B9000014102EB4101B0FBF1F010BD2DE9F04144
:100BA00082B0002868D00446007843F60006C007EB
:100BB000C4F202060BD0B06800F00C00042840F02C
:100BC0009F803068800302D56068002854D0207868
:100BD00080071AD5B06810F00C0F09D0B06800F08B
:100BE0000C00082840F0A6807068400200F1A28046
:100BF0003068800702D5E06801283DD1306821695E
:100C000020F0F80040EAC10030602078000737D4B7
:100C1000207840074CD4A56955B3B06800F00C00AB
:100C2000082840F0BB80012D26D07068E16900F4EF
:100C300080028A4220D1216A00F03F028A421BD101
:100C400047F6C071626A0140B1EB821F14D1A16AFC
:100C50004FF6FF73C903994300F44032A1F5803188
:100C60008A4209D1E16A00F07060B0EB016F03D1F4
:100C7000002002B0BDE8F081012002B0BDE8F081A3
:100C80006069002840F20000C4F2472076D00121BC
:100C9000C0F8801EFFF758FD054600BF706F800743
:100CA000B6D4FFF751FD401B0228F7D9DDE000BFA5
:100CB000306C10F080580AD100200190306C40F068
:100CC00080503064306C00F080500190019847F201
:100CD0000007C4F200073868C00541D4386840F402
:100CE00080703860FFF730FD054600BF3868C005EA
:100CF00036D4FFF729FD401B0228F7D9B5E000BF25
:100D0000B06800F00C00082803D1706840023FF57D
:100D100058AF6068B0F5803F07D0B0F5A02F40F025
:100D20008D80306840F480203060306840F480303E
:100D300030608DE0E068002852D00020C4F24720E7
:100D400001210160FFF700FD054600BF3068800704
:100D50003FF554AFFFF7F8FC401B0228F6D984E0BA
:100D6000A068012805D005284ED1306F40F004005E
:100D70003067306F40F0010030674FE00021C0F86D
:100D8000801EFFF7E1FC0546706F80077FF540AFDE
:100D9000FFF7DAFC401B0228F6D966E00027C4F210
:100DA000472700203866FFF7CFFC022D05460BD100
:100DB000306880015ED5FFF7C7FC401B02284FF06A
:100DC0000300F5D955E700BF306880017FF550AFCB
:100DD000FFF7BAFC401B02284FF00300F4D948E7A4
:100DE0000020C4F2472000210160FFF7ADFC05465A
:100DF000306880077FF509AFFFF7A6FC401B02288B
:100E00004FF00300F4D934E7316F002821F00101DD
:100E10003167316F21F0040131674DD0FFF794FC49
:100E2000054641F2883700BF306F800756D4FFF780
:100E30008BFC401BB842F7D917E000BF316800288F
:100E400021F480313160316821F4802131604FD04C
:100E5000FFF77AFC054600BF306880033FF5B7AE68
:100E6000FFF772FC401B6428F6D9032002B0BDE8EE
:100E7000F08100BF04F11C052FCD084340EA821029
:100E8000D9034FF6FF729143A1F5803140EA056026
:100E90000843706001203866FFF756FC044600BF27
:100EA000306880013FF5E4AEFFF74EFC001B0228DE
:100EB0004FF00300F4D9DCE6FFF746FC054641F2AB
:100EC000883700BF306F800708D5FFF73DFC401B17
:100ED000B8424FF00300F5D9CBE600BFB8F1000FE0
:100EE0007FF499AE306C20F08050306493E600BF00
:100EF000FFF72AFC054600BF306880037FF567AE28
:100F0000FFF722FC401B64284FF00300F4D9B0E641
:100F100070B538B10446406A30B10020206104F158
:100F2000140007E0012070BD6068B0F5827F03D037
:100F300004F11C00002101600026A66294F8510013
:100F400020B9204684F8506000F03CF8022084F874
:100F5000510094E80F0001F48271056802F4044224
:100F600025F040050560114403F400622369114433
:100F700003F002026369114403F00102A369E56909
:100F8000114403F40072114405F03802256A11443B
:100F900005F08002A56A114305F400521143016077
:100FA000626A042101EA134102F010021144416017
:100FB000C16921F40061C1610120666584F85100B6
:100FC000304670BD80B586B0016843F20000C4F2BF
:100FD0000100814202D006B080BD00BF002143F66F
:100FE00030020191C4F20202536900F5504043F40B
:100FF00080535361536903F480530193019B019122
:10100000136843F001031360126802F001020192B9
:10101000019AE02201920222CDE9022103210491EA
:101020000521059101A9FFF7B5FA06B080BD0000C2
:101030002DE9F04383B0044690F85000012803D115
:10104000022003B0BDE8F0834FF001091D461646AB
:101050000F4684F85090FFF777FB94F85110012960
:1010600044D18046002F4FF0010018BF002E00F041
:10107000D6800320002184F8510061652763A6868D
:10108000E686A163A187E187A0682164B0F5004FDF
:101090002068616407D1016821F0400101600168A6
:1010A00041F4804101600168490603D4016841F0C0
:1010B000400101606168731EE268B1FA81F1B3FA20
:1010C00083F349095B09B2F5006F41EA03013DD1A1
:1010D00031B137F8021BC1602763E08E0138E0862A
:1010E000E08E00286CD0681C0DD11EE0022096E036
:1010F000216B31F8022BC2602163E08E0138E0865B
:10110000E08E00285CD0206881688907F0D4FFF762
:101110001BFBA0EB0800A842F2D303207FE000BF36
:10112000FFF712FBE08E00284AD02068816889070B
:10113000F6D5216B31F8022BC2602163E08E0138B5
:10114000E086E08E0028F0D13AE000BF39B139786E
:101150000173206B01302063E08E0138E086E08E61
:1011600070B3681C0BD11BE0216B09780173206BF5
:1011700001302063E08E0138E086E08E00B3206805
:1011800081688907F0D4FFF7DFFAA0EB0800A842D6
:10119000F3D3032043E000BFFFF7D6FAE08E78B127
:1011A000206881688907F7D5216B09780173206B66
:1011B00001302063E08E0138E086E08E0028EFD118
:1011C00040F20800C2F20000006849F68171C1F2E5
:1011D0005E61A0FB0101480D4FF47A714843029013
:1011E0006068B0F5827F23D1204680212A4643469D
:1011F00000F038FD28B1606D40F0200060652020CF
:101200006065A06838B9002001902068C16801912C
:10121000806801900198606D002818BF01200021AE
:1012200084F8519084F8501003B0BDE8F08300BFFB
:1012300002980028E5D00298013802902068806862
:101240000006DED502980028DBD002980138029013
:10125000206880680006D4D502980028D1D0029872
:1012600001380290206880680006CAD502980028DC
:10127000C7D0029801380290206880680006D7D451
:10128000BFE700007047000070470000002804BF5F
:101290000120704710B5044690F83D0028B90020A1
:1012A00084F83C00204600F01FF8022084F83D003E
:1012B0002068211D00F040FE012084F8460084F8DB
:1012C0003E0084F83F0084F8400084F8410084F830
:1012D000420084F8430084F8440084F8450084F810
:1012E0003D00002010BD00007047000090F83D1048
:1012F00001291CBF01207047022180F83D100068C1
:1013000041F2FF72C168C4F20002904241F0010153
:10131000C1600DDC40F2FF71C4F20001884215DCAF
:10132000B0F1804F2AD040F20041C4F2000123E026
:1013300040F2FF31C4F20101884213DC41F60001A2
:10134000C4F20001884219D0002113E040F60001E8
:10135000C4F20001884211D040F60041C4F20001FD
:101360000AE000BF44F20001C4F20101884205D046
:1013700040F20041C4F20101884206D1816801F0C7
:101380000701062904BF00207047016841F00101F0
:1013900001600020704700007047000010B5016830
:1013A00004460869800744BFC8685FEA807039D482
:1013B0000869400744BFC8685FEA40703ED40869C6
:1013C000000744BFC8685FEA007045D40869C006DA
:1013D00044BFC8685FEAC0604AD40869C0071CBF40
:1013E000C8685FEAC07051D10869000644BFC86888
:1013F0005FEA006052D40869400644BFC8685FEAEB
:10140000406053D40869800646BFC8685FEA8060C0
:1014100010BD6FF0200220460A61BDE81040FFF7C2
:1014200033BF00BF6FF00200086101202077886998
:10143000800743D02046FFF7AFFF45E06FF0040080
:10144000086102202077886910F4407F40D0204650
:10145000FFF7A2FF42E000BF6FF008000861042020
:101460002077C86980073DD02046FFF795FF3FE011
:101470006FF01000086108202077C86910F4407FE1
:101480003AD02046FFF788FF3CE000BF6FF0010034
:101490000861204600F03EF82168A5E76FF0800063
:1014A00008612046FFF7EEFE2168A4E76FF04000D8
:1014B0000861204600F038F82168A3E7204600F0D4
:1014C00025F8204600F024F82168002020776FE7F7
:1014D000204600F01BF8204600F01AF82168002092
:1014E00020776CE7204600F011F8204600F010F855
:1014F00021680020207769E7204600F007F82046A1
:1015000000F006F821680020207766E770470000A9
:101510007047000000680021C4F20101884218BF32
:101520007047FFF717B9000070470000002804BF9C
:101530000120704710B5044690F83D0028B90020FE
:1015400084F83C00204600F021F8242084F83D0077
:101550002068C16821F40051C160204600F08AFD76
:101560002068016921F490410161416921F02A015B
:101570004161C16841F40051C16000202021206414
:1015800084F83D1084F83E1010BD000080B586B090
:10159000016841F20040C4F20100814202D006B06D
:1015A00080BD00BF002143F630020191C4F2020267
:1015B000536900F5744043F020035361536903F00D
:1015C00020030193019B0191136843F0040313600E
:1015D000126802F004020192019AC02201920222D2
:1015E000CDE90221032104910821059101A9FEF70B
:1015F000D1FF06B080BD00002DE9F04381B0044664
:1016000090F83D0020280DD10F4600294FF0010031
:1016100000F0DD801646002A00F0D98094F83C00E6
:10162000012803D1022001B0BDE8F083012084F835
:101630003C000020206421201D4684F83D00FFF777
:1016400083F8A684E684A1680646B1F5805F03D1DD
:101650002069002800F01081B8460027002084F897
:101660003C00E18C2068002900F0908005F1010920
:101670000DE000BFB8F1000F28D018F8011B416041
:10168000E18C0139E184E18C002900F07F80016860
:101690000906EFD4B9F1000F0AD0FDB1FFF754F8F5
:1016A000801BA8421AD8206801680906F6D5E1E730
:1016B00001680906DED4016809065CBF01685FEABB
:1016C0000161D7D401680906F2D5D3E737F8021BC8
:1016D0004FF000086FF35F21D1E700BF206850E8AA
:1016E000030F216820F4D07041E80302BAB32068E8
:1016F00050E8030F216820F4D07041E8030272B370
:10170000206850E8030F216820F4D07041E80302FC
:101710002AB3206850E8030F216820F4D07041E814
:101720000302002ADAD11AE0206850E8050F216888
:1017300020F0010041E80502DAB1206850E8050F09
:10174000216820F0010041E8050292B1206850E8CC
:10175000050F216820F0010041E805024AB1206828
:1017600050E8050F216820F0010041E80502002A39
:10177000DAD1202084F83D0084F83E00002084F86F
:101780003C00032001B0BDE8F08300BF01684906BA
:1017900019D4FDB1691C0DD10168490613D4016843
:1017A00049065CBF01685FEA41610CD401684906E3
:1017B000F2D508E0FEF7C8FF801BA8420AD82068CF
:1017C00000684006F6D5202084F83D00002001B0D6
:1017D000BDE8F083206850E8030F216820F4D07042
:1017E00041E80302E2B3206850E8030F216820F4C7
:1017F000D07041E803029AB3206850E8030F2168D3
:1018000020F4D07041E8030252B3206850E8030F7F
:10181000216820F4D07041E80302002ADAD11FE0E9
:10182000206850E8050F216820F0010041E805021A
:10183000002A9ED0206850E8050F216820F00100A2
:1018400041E80502002A3FF494AF206850E8050FF4
:10185000216820F0010041E80502002A3FF489AF29
:10186000206850E8050F216820F0010041E80502DA
:10187000002AD5D17DE700BF4FF00008EEE600005A
:10188000FEE700002DE9F04F81B041F2004440F244
:101890005825C4F2020404264FF0000AC2F20005E3
:1018A0000DF103080DF102074FF00A0B4FF0090983
:1018B0000F208DF8030020464FF4005100228DF8D0
:1018C00002A0FEF73BFF2846414601226423FFF7B2
:1018D000AFFB2846394601226423FFF7A9FB2046C7
:1018E0004FF400510122FEF729FF0C208DF8030070
:1018F00001208DF8020020464FF400510022FEF72F
:101900001DFF2846414601226423FFF791FB28462C
:10191000394601226423FFF78BFB20464FF4005128
:101920000122FEF70BFF0B208DF8030007208DF836
:10193000020020464FF400510022FEF7FFFE284629
:10194000414601226423FFF773FB284639460122F2
:101950006423FFF76DFB20464FF400510122FEF790
:10196000EDFE20464FF4005100228DF803B08DF8B3
:1019700002A0FEF7E3FE2846414601226423FFF75A
:1019800057FB2846394601226423FFF751FB2046C6
:101990004FF400510122FEF7D1FE20464FF40051D2
:1019A00000228DF803908DF802A0FEF7C7FE2846AE
:1019B000414601226423FFF73BFB284639460122BA
:1019C0006423FFF735FB20464FF400510122FEF758
:1019D000B5FE013E7FF46CAF40F2582501264FF072
:1019E0000009C2F200050DF103080DF1020700BF66
:1019F00020464FF4005100228DF803608DF80290CC
:101A0000FEF79CFE2846414601226423FFF710FBA7
:101A10002846394601226423FFF70AFB20464FF48B
:101A200000510122FEF78AFE20464FF400510022A9
:101A30008DF803608DF80290FEF780FE284641463F
:101A400001226423FFF7F4FA284639460122642371
:101A5000FFF7EEFA20464FF400510122FEF76EFE2A
:101A600020464FF4005100228DF803608DF802905B
:101A7000FEF764FE2846414601226423FFF7D8FAA8
:101A80002846394601226423FFF7D2FA20464FF454
:101A900000510122FEF752FE20464FF40051002271
:101AA0008DF803608DF80290FEF748FE2846414607
:101AB00001226423FFF7BCFA284639460122642339
:101AC000FFF7B6FA20464FF400510122FEF736FE2A
:101AD0000136092E8CD101B0BDE8F08F70B586B00B
:101AE000002543F6300005950095C4F20200016818
:101AF00041F2004441F0800101600168C4F2020437
:101B000001F080010091009900950168002241F0E8
:101B10000101016001684FF4005601F001010091DC
:101B200000990095016841F020010160016801F011
:101B30002001009100990095016841F004010160C5
:101B400000684FF4005100F0040000900098204617
:101B5000FEF7F4FD0120CDE9020501A9204601961A
:101B60000495FEF717FD06B070BD000080B540F289
:101B7000582043F20001C2F20000C4F201014FF408
:101B8000827200234FF4007C80E80E000A21C0E935
:101B90000333C0E9053CC361C0E90833C0E90A3139
:101BA000FFF7B6F9002808BF80BDBDE88040FEF70A
:101BB000EBBC000080B540F2F82041F20041C2F2D7
:101BC0000000C4F2010100234FF00C0C4FF4165238
:101BD00080E80E00C0E90333C0E905C3C361FFF725
:101BE000A5FC002808BF80BDBDE88040FEF7CCBC46
:101BF000FEE70000FEE7000000000000000000001B
:101C0000EFF30980BFF36F8F154B1A681EF0100FAA
:101C100008BF20ED108A20E9F04F10602DE909007F
:101C20004FF0500080F31188BFF34F8FBFF36F8FD9
:101C300001F004FC4FF0000080F31188BDE80900BA
:101C400019680868B0E8F04F1EF0100F08BFB0EC3C
:101C5000108A80F30988BFF36F8F704700BF00BF01
:101C6000500100202DE9F04182B01E4690460D46FD
:101C70000446FEF769FD301A00EB0807FEF764FD25
:101C800040F20801C2F200010968C1F3CB31794387
:101C9000019121688A682A40AA4227D1064618F194
:101CA00001001FD0FEF750FD801BB84222D20198E0
:101CB00001990028A1F1010101912168896808BFFB
:101CC000074601EA0500A842ECD00FE088682840EA
:101CD000A8420BD188682840A84207D188682840CC
:101CE000A84203D188682840A842EFD0002002B063
:101CF000BDE8F081D4E900014268B1F5827F22F0AD
:101D0000E00242600AD1A168B1F5004F02D0B1F5FE
:101D1000806F03D1016821F040010160A16AB1F533
:101D2000005F07D1016821F400510160016841F4AE
:101D300000510160012084F85100002084F8500017
:101D4000032002B0BDE8F0810000000000000000A8
:101D5000074B19680868B0E8F04F80F30988BFF3B3
:101D60006F8F4FF0000080F31188704700BF00BFF5
:101D7000500100202DE9F0438DB005460846884605
:101D8000FEF7FCFA0122FD218DF805202A01ADF8AD
:101D90000210C11C02328DF804108DF8062051404B
:101DA0006FF003025FFA80F9B9F1000F81EA0207D0
:101DB00032D0A9F10101032900F0030C04D2002163
:101DC000BCF1000F18D127E0ACEB090108F10103C9
:101DD0006FF003029E18F0783479757978400432F8
:101DE000B67960408F186840043786EA0007F1D161
:101DF000111DBCF1000F0FD018F80120BCF1010F2C
:101E000087EA020708D041444A78BCF1020F87EA0A
:101E100002071CBF887847400DF10206701D41463D
:101E20004A46FEF7CAFA09EB0600477140F2F8206D
:101E300009F10602C2F2000031464FF47A73FFF74F
:101E4000DBFB0DB0BDE8F08380B54EF21000CEF2A2
:101E50000000006801F040FF012808BF80BDBDE818
:101E6000804001F00BBC0000B0B592B0002443F6F6
:101E700040000B94CDE90944CDE907440594CDE930
:101E80000344CDE901440094C4F202000168012238
:101E900041F0805101600068022500F08050009000
:101EA000009847F200000094C4F20000016862F359
:101EB0008F310160006800F44040009000981020CD
:101EC0000A9008200E903220CDE90F0507201190CE
:101ED00006A806950992CDE90C54FEF75FFE28B1DD
:101EE000EFF3108072B600BFFEE700BF0F20CDE910
:101EF00001054FF4A05004904FF48050059001A8C4
:101F000001210394FEF71CFD20B1EFF3108072B69F
:101F1000FEE700BF12B0B0BD4EF68850CEF2000012
:101F2000016841F4700101607047000040F2B02088
:101F3000C2F20000FFF732BA10B540F6FF3E036868
:101F4000C4F2000E40F2004C7045C4F2010C27DCD4
:101F5000B0F1804F31D040F20042C4F20002904212
:101F60002BD040F60002C4F20002904225D041F688
:101F7000FF72C4F20002904229DC70453CDCB0F1F3
:101F8000804F5FD040F20042C4F20002904259D02C
:101F900040F60002C4F20002904253D056E000BF67
:101FA00040F60042C4F20002904206D0604504D0E0
:101FB0000022C4F201029042D9D14A6823F0700392
:101FC000134341F6FF72C4F200029042D5DD43F69E
:101FD000FF72C4F20102904222DC42F20002C4F21B
:101FE000000290422ED00022C4F20102904229D079
:101FF000604527D02AE000BF40F60042C4F200024C
:1020000090421FD041F60002C4F20002904219D063
:1020100041F60042C4F20002904213D016E000BF25
:1020200044F20002C4F2010290420BD044F60002D6
:10203000C4F20102904205D044F20042C4F201020F
:10204000904203D1CA6823F44073134323F0800203
:102050004B69D1F800E08C681A430260C46240F416
:102060008062C0F828E0624504BF0969016301216C
:10207000416110BD10B504460068D4E902C223696D
:10208000016921F4405111430161626943EA0C0185
:10209000E3691143C268194349F20C639A4311433F
:1020A000C1604169A26921F4407141F200431143CA
:1020B00040F48062C4F201039A42416102D1FEF70A
:1020C00023FD01E0FEF70CFDE16963681922B1F51B
:1020D000004FA0FB020123D15A00DB0FFEF7D6F818
:1020E00048F21F51C5F2EB11A0FB01235A094FF62C
:1020F0009C73C0F6FF7303F1805302FB030032238D
:1021000003EBC000A0FB01014FF4F87000EA1110CE
:1021100000EB0210C1F3421108442168886010BD31
:102120009A009B0FFEF7B2F848F21F51C5F2EB116F
:10213000A0FB01235A094FF69C73C0F6FF7302FB04
:102140000300322303EB0010A0FB0101F02000EAA2
:10215000511000EB0210C1F343110844216888605C
:1021600010BD0000FEE70000F0B581B041F2004470
:10217000C4F202040D468DF8030020464FF40051CE
:102180000022FEF7DBFA40F25826C2F200060DF1FB
:1021900003073046394601226423FEF749FF3046E3
:1021A000294601226423FEF743FF304639460122C7
:1021B0006423FEF73DFF691C304601226423FEF7CD
:1021C00037FF3046394601226423FEF731FFA91C50
:1021D000304601226423FEF72BFF304639460122A8
:1021E0006423FEF725FFE91C304601226423FEF735
:1021F0001FFF20464FF400510122FEF79FFA01B065
:10220000F0BD000082B0FEF7B3FAFFF72DFEFFF736
:1022100065FCFFF7ABFCFFF7CDFCFFF733FB40F2AB
:10222000481442F66D50C2F200040125C0F60000C9
:102230000CA14FF4007200230095019401F0E0FC22
:1022400042F651500434C0F600000AA14FF4007267
:1022500000230095019401F0D3FC01F06FF800BF5A
:10226000FEE700BF59756E74656368204C6F676F39
:1022700000000000545453002DE9F041044600F0E2
:1022800051FE40F25016C2F20006F06840F22C45B2
:102290000130F0603068C2F2000558B130690028A2
:1022A00040F007813068E16AC06A884298BF3460B4
:1022B000FFE000BF3460F068012840F0FA80284653
:1022C00000F0D6FD05F1140000F0D2FD05F1280064
:1022D00000F0CEFD05F13C0000F0CAFD05F1500014
:1022E00000F0C6FD05F1640000F0C2FD05F17800C4
:1022F00000F0BEFD05F18C0000F0BAFD05F1A00074
:1023000000F0B6FD05F1B40000F0B2FD05F1C80023
:1023100000F0AEFD05F1DC0000F0AAFD05F1F000D3
:1023200000F0A6FD05F5827000F0A2FD05F58C70A9
:1023300000F09EFD05F5967000F09AFD05F5A07081
:1023400000F096FD05F5AA7000F092FD05F5B47059
:1023500000F08EFD05F5BE7000F08AFD05F5C87031
:1023600000F086FD05F5D27000F082FD05F5DC7009
:1023700000F07EFD05F5E67000F07AFD05F5F070E1
:1023800000F076FD05F5FA7000F072FD05F50270BB
:1023900000F06EFD05F5077000F06AFD05F50C70A4
:1023A00000F066FD05F5117000F062FD05F5167090
:1023B00000F05EFD05F51B7000F05AFD05F520707C
:1023C00000F056FD05F5257000F052FD05F52A7068
:1023D00000F04EFD05F52F7000F04AFD05F5347054
:1023E00000F046FD05F5397000F042FD05F53E7040
:1023F00000F03EFD05F5437000F03AFD05F548702C
:1024000000F036FD05F54D7000F032FD05F5527017
:1024100000F02EFD05F5577000F02AFD05F55C7003
:1024200000F026FD05F5617000F022FD05F56670EF
:1024300000F01EFD05F56B7000F01AFD05F57070DB
:1024400000F016FD05F5757000F012FD05F57A70C7
:1024500000F00EFD05F57F7000F00AFD05F58260C5
:1024600000F006FD05F2244000F002FD05F587604E
:1024700000F0FEFC05F24C4000F0FAFC40F22C2883
:10248000C2F20008404600F0F3FC08F11407384699
:1024900000F0EEFC06F1640000F0EAFC06F13C00FE
:1024A00000F0E6FC06F1500000F0E2FCC6F81C80EB
:1024B00037627068716A421CE06A726088426264C6
:1024C00088BF706200EB800005EB8000211D00F0EA
:1024D00011FD00F04BFD306988B13068E16AC06AD7
:1024E000884228BFBDE8F0814EF60450CEF20000CD
:1024F0004FF080510160BFF34F8FBFF36F8FBDE886
:10250000F081000040F2501540F22C464EF604587F
:10251000C2F20005C2F20006CEF200084FF080576A
:1025200003E000BF204600F039FDA868D0B100F0FC
:10253000F9FCA86CC468201D00F06CFCE868013848
:10254000E860A8680138A86000F010FD94F8590010
:102550000228EAD00128E5D070B9206B00F01EFDFA
:10256000E0E700BF30680228DFD3C8F80070BFF38F
:102570004F8FBFF36F8FD8E74FF0500080F3118873
:10258000BFF36F8FBFF34F8FFEE700002DE9F047D9
:102590000A9C8246206B16460F46DDE908599100D9
:1025A000A5229846FDF74EFF206B002F00EB86001A
:1025B000A0F1040020F0070656D0387884F83400E3
:1025C000387800284BD0787884F83500787800285F
:1025D00045D0B87884F83600B87800283FD0F8782D
:1025E00084F83700F878D0B3387984F8380038792F
:1025F000A8B3787984F83900787980B3B87984F809
:102600003A00B87958B3F87984F83B00F87930B3D8
:10261000387A84F83C00387A08B3787A84F83D0038
:10262000787AE0B1B87A84F83E00B87AB8B1F87A2E
:1026300084F83F00F87A90B1387B84F84000387B0A
:1026400068B1787B84F84100787B40B1B87B84F82E
:102650004200B87B00281CBFF87B84F843000020B0
:1026600084F8430003E000BF002084F83400002712
:10267000201D372D28BF3725E562C4E9135700F028
:1026800003FC04F1180000F0FFFBC5F13800A06165
:1026900030465146424624616462676584F858704A
:1026A00000F042FBB9F1000F206018BFC9F80040EC
:1026B000BDE8F08708480068006880F308884FF09C
:1026C000000080F3148862B661B6BFF34F8FBFF38A
:1026D0006F8F00DF00BF000008ED00E081B0002038
:1026E000009040F2E400C2F2000000684FF0500198
:1026F00081F31188BFF36F8FBFF34F8F013007D085
:10270000FEE700BF009830B9009820B9009810B9D2
:1027100000980028F6D001B07047000088B040F261
:10272000C81AC2F2000A0DF11009EB46DAF80800E7
:1027300005681DB1C068046801E000BF002400F016
:1027400075FE01F0D9FADAF810100646884220D357
:10275000002DCAF8106051D0A6424FD301F0D4FB2F
:10276000DAF80800C068C7683D1D284600F052FB33
:1027700097F82800410745D400F0FE0087F82800AC
:1027800084E000BF6860DAF8080039462D6100F087
:102790007FFBDAF80800016831B3C068C5680468D7
:1027A0002F1D384600F036FB296A2846884795F8E1
:1027B00028004007EDD5A8692044A042E2D8DAF805
:1027C0000000002800F04881002004A931C101F078
:1027D00083FADAF8000049460022002300F0D6FF11
:1027E0000028D6D138E100BFDAF80C10CAF8106022
:1027F000CAE9021001F088FB1AE100BF65B10022AE
:1028000010E000BFB8693F610119B14279601FD97A
:102810000AF1080021E000BFDAF80C000068B0FA05
:1028200080F04209DAF80000A11B00F093FC01F0EF
:102830006BFB002840F0FC804EF60450CEF2000006
:102840004FF080510160BFF34F8FBFF36F8FEFE008
:10285000311B814206D20AF10C000068294600F0C3
:1028600017FB13E0DAF80000002800F013810020C5
:1028700004A991C101F030FADAF8000049460022BB
:10288000002300F083FF002800F00481396A3846F5
:102890008847CDE00098B0F1FF3F07DCDDE901207B
:1028A000039990470098002800F1C280029E706949
:1028B00010B1301D00F0AEFA01F01EFADAF8101077
:1028C000074688420DD30098CAF8107009283FD9EE
:1028D000AEE000BF6860DAF8080021462D6100F024
:1028E000D7FADAF80800016841B3C068C568D0F8C3
:1028F00000802C1D204600F08DFA296A2846884762
:1029000095F828004007ECD5A86940444045E1D837
:10291000DAF80000002800F095800020CDE90408D6
:10292000069501F0D9F9DAF80000494600220023A3
:1029300000F02CFF0028D4D184E000BFDAF80C109E
:10294000CAE902100098CAF81070092800F27080D5
:10295000DFE800F00606064448620606444800BF69
:1029600096F82800019A40F00101B06986F8281015
:102970008318314641F8043FBB42366106D997427D
:102980000AF1080007D293420AD204E0BA1A82423E
:1029900006D20AF10C00006800F07AFA48E000BFA5
:1029A000316A3046884796F82800400740D5DAF863
:1029B000000000285AD00198B16906960844002109
:1029C000CDE9041001F088F9DAF800004946002248
:1029D000002300F0DBFE58BB48E000BF96F828005B
:1029E00022E000BF96F8280040F00101019886F827
:1029F00028100028B06143D0384431460AF10C0257
:102A000041F8040F3661B84288BF0AF10802106825
:102A100000F03EFA0CE000BF96F82800810703D4CE
:102A2000304600F0BBFA03E000F0FE0086F8280014
:102A3000DAF800005946002200F0BEFF00287FF4BB
:102A400029AF73E64FF0500080F31188BFF36F8F0A
:102A5000BFF34F8FFEE700BF4FF0500080F31188A7
:102A6000BFF36F8FBFF34F8FFEE700BF4FF05000F3
:102A700080F31188BFF36F8FBFF34F8FFEE700BF66
:102A80004FF0500080F31188BFF36F8FBFF34F8F6B
:102A9000FEE700BF4FF0500080F31188BFF36F8F47
:102AA000BFF34F8FFEE70000F0B581B0044600F0A1
:102AB00039FA94F94560012E0FDB04F1240500BFBB
:102AC000286850B1284601F0E5F9002818BF00F049
:102AD000B5FBF0B2013E0128F2D8FF2684F845602C
:102AE00000F044FA00F01EFA94F94470012F0EDB56
:102AF00004F11005286850B1284601F0CBF90028F0
:102B000018BF00F09BFBF8B2013F0128F2D884F80F
:102B1000446001B0BDE8F04000F028BA70B504464A
:102B200000F084FC40F2042CC2F2000CDCF804003B
:102B300050B19CF80000002818BF4FF000404FF043
:102B4000000574BB8DE000BF40F68C00C2F20000AF
:102B5000C21D22F0070210F00701A0EB020318BF0C
:102B6000104600224FF47055CCE90602002918BF28
:102B700003F57055411921F00701A1F10803CCF8C4
:102B8000043041E90222191AC0E9003101208CF811
:102B900000004FF00040CCE90211002C4FF000057E
:102BA0005FD020405DD124F0070000F110026007E3
:102BB00008BF04F10802002A4FF0000551D0DCF8EC
:102BC000080082424DD8604650F818EFDEF80450F5
:102BD00095422CD2DEF80010C1B174464D68954282
:102BE00018D20B68B3B15D68954217D21868A8B1C6
:102BF0004568954216D20468A4B16568954215D21D
:102C00002168A6460029E9D111E000BF0CF11800A7
:102C10000DE000BF8E46204609E000BF9E460846F4
:102C200005E000BF8646184601E000BFA646DCF876
:102C300004108E4514D00168DEF80040AB1A112B49
:102C400004604DD30EEB0205680719D04FF0500019
:102C500080F31188BFF36F8FBFF34F8FFEE700BF84
:102C6000002501F051F968075BD04FF0500080F368
:102C70001188BFF36F8FBFF34F8F00BFFEE700BF18
:102C80000CF118006B60CEF8042000BF0368AB4263
:102C90000AD21868A8420BD20368AB4204D2186863
:102CA0001A46A842F2D304E00246184601E000BFEB
:102CB0001A4653686C68D618AE4202D11C441546B9
:102CC00054602B19834207D1DCF80430984203D0BA
:102CD000D0E9000323446B60AA42286018BF156046
:102CE00001F10805DEF80400DCE90212091A91423C
:102CF000CCF8081038BFCCF80C109CF80010002954
:102D000018BF40F00040CEF80400DCF810000021AD
:102D10000130CEF80010CCF8100001F0F5F868078B
:102D2000A3D1284670BD0000034642F2DD60C0F624
:102D300000004FF0807C21F0010103E903106FF0E7
:102D4000020043F8240CA3F1440043F8202C704700
:102D500040F2CC04C2F2000400202146FFF70AF83A
:102D60004FF4FA5000F020FAF6E7000040F20C05AC
:102D700040F25424C2F20005C2F20004002600BF53
:102D8000AF19A85B398A2080618001202146FFF7B6
:102D9000EBF97888798A2080618002202146FFF74C
:102DA000E3F9B888B98A2080618003202146FFF7C3
:102DB000DBF9F888F98A2080618004202146FFF73A
:102DC000D3F93889398B2080618005202146FFF7AF
:102DD000CBF97889798B2080618006202146FFF726
:102DE000C3F9B889B98B2080618007202146FFF79D
:102DF000BBF9F889F98B2080618008202146FFF714
:102E0000B3F94FF47A7000F0CFF92036C02EB7D165
:102E1000B4E70000D0E9013201699A60D1F804C03A
:102E200082688445536008BF4A60002202610868D6
:102E3000013808600868704744F29063C2F20003EA
:102E4000036044F29040C2F20000086080201060ED
:102E50007047000044F6EC23C2F20003036044F222
:102E6000EC60C2F2000008604FF4807010607047A0
:102E70004FF0FF31024642F8081F00214260C0E9CE
:102E800003220160704700000021016170470000CB
:102E900010B5D1F800E01EF1010213D000F10804D2
:102EA00062681368734511D853681C68744511D85B
:102EB0005A68146874450FD854682368A44673454B
:102EC000EED90BE00269D2F804C007E0944622462E
:102ED00004E000BF9C4601E094461A46C1F804C0D5
:102EE000CCF808108A605160086101680131016006
:102EF00010BD0000D0F800C0436808619A684B60BC
:102F00008A609A68996051600CF101010160704714
:102F1000DFF80C00016841F47001016070470000A7
:102F200088ED00E04FF0500080F31188BFF36F8F01
:102F3000BFF34F8F40F2E400C2F2000001684A1C68
:102F4000026009B1704700BF4EF60450CEF2000097
:102F50000068000608BF70474FF0500080F31188EA
:102F6000BFF36F8FBFF34F8FFEE7000040F2E40026
:102F7000C2F20000016839B10139016018BF704721
:102F8000002080F3118870474FF0500080F31188C3
:102F9000BFF36F8FBFF34F8FFEE7000070B50028BF
:102FA00008BF70BD40F20425C2F20005044628782F
:102FB00054F8041C002818BF4FF0004008420DD000
:102FC000A4F1080632689AB14FF0500080F31188DE
:102FD000BFF36F8FBFF34F8FFEE700BF4FF050007E
:102FE00080F31188BFF36F8FBFF34F8FFEE700BFF1
:102FF00021EA000044F8040C00F018FA54F8041C0C
:10300000A8680844A86005F1180000BF0368B3422F
:103010000AD21868B04225D20368B34204D21868B5
:103020001A46B042F2D301E0024618465368D4185B
:10303000B44202D11944164651607318834206D136
:103040006B68984203D0D0E9000319447160B24222
:10305000306018BF1660686901306861BDE8704073
:1030600000F052BF1A465368D418B442E5D1E1E7E4
:103070004EF21000CEF2000000210160816040F2AB
:103080000801C2F20001096844F6D352C1F262029B
:10309000A1FB02124FF0FF3101EB921141600721B9
:1030A0000160704744F6483CC2F2000CDCF8002096
:1030B00022B3634653F8082F42B3634653F8102FE8
:1030C00052B3634653F8182F62B3634653F8202F68
:1030D00072B3634653F8282F82B3634653F8302FF8
:1030E00092B3634653F8382F002A18BF704707225F
:1030F00019600CEBC2014860704700BF00226346B4
:1031000019600CEBC2014860704700BF01221960D2
:103110000CEBC20148607047022219600CEBC2013F
:1031200048607047032219600CEBC2014860704789
:10313000042219600CEBC201486070470522196037
:103140000CEBC20148607047062219600CEBC2010B
:103150004860704770B515460E460446FFF7E2FE1C
:1031600094F84400FF2804BF002084F8440094F839
:103170004500FF2804BF002084F84500FFF7F6FE55
:10318000A06B28B12046BDE87040FFF78DBC00BFA2
:1031900004F1240031462A4600F092F82046BDE8AA
:1031A0007040FFF781BC000070B588B340F2501545
:1031B000C2F200050446686950B14FF0500080F338
:1031C0001188BFF36F8FBFF34F8F00BFFEE700BFC3
:1031D000686901306861AE6928680430FFF71AFE3B
:1031E0002868A419446005D3286A29680431FFF7C8
:1031F0004FFE08E0E86929680431FFF749FEE86AF4
:10320000844238BFEC6200F07FFE002818BF70BD1A
:103210004EF60450CEF200004FF080510160BFF333
:103220004F8FBFF36F8F70BD40F25011C2F200019B
:103230008A6B0260896941607047000040F250105B
:10324000C2F20000012101637047000070B5D8B1DF
:1032500040F25014C2F200040D4621681831FFF705
:1032600017FEA66920680430FFF7D4FD681C15D04E
:103270002068AD19456019D3206A21680431BDE882
:103280007040FFF705BE00BF4FF0500080F311887B
:10329000BFF36F8FBFF34F8FFEE700BF54F8500BA3
:1032A000011D2046BDE87040FFF724BEE06921689B
:1032B0000431FFF7EDFDE06A854238BFE56270BD7D
:1032C000F0B581B0C0B140F25014C2F200040D4616
:1032D000216816461831FFF70DFEA76920680430F3
:1032E000FFF798FD96B154F8500B011D204601B030
:1032F000BDE8F040FFF7FEBD4FF0500080F31188AD
:10330000BFF36F8FBFF34F8FFEE700BF2068ED194B
:10331000456007D3206A2168043101B0BDE8F04060
:10332000FFF7B6BDE06921680431FFF7B1FDE06A3F
:10333000854238BFE56201B0F0BD000010B588B02D
:103340000020CDE9050006A805A904AAFFF774FD31
:10335000059800283ED0069C002C45D05C21049A9C
:10336000079107995C2949D107992063022084F8C5
:10337000590007A80021CDE9001042F20550C0F61F
:10338000000028A100230294FFF700F92046FEF771
:1033900073FF079840F25014C2F20004A062B0B16B
:1033A00000F02AFE411C33D0012810D14FF050000C
:1033B00080F31188BFF36F8FBFF34F8F4FF0FF3053
:1033C000E062012020610020A06100F095F808B0C3
:1033D00010BD00BF4FF0500080F31188BFF36F8F16
:1033E000BFF34F8FFEE700BF4FF0500080F311880E
:1033F000BFF36F8FBFF34F8FFEE700BF4FF050005A
:1034000080F31188BFF36F8FBFF34F8FFEE700BFCC
:103410004FF0500080F31188BFF36F8FBFF34F8FD1
:10342000FEE700BF49444C450000000040F2501048
:10343000C2F20000416901314161704780B540F23C
:10344000501EC2F2000EDEF8141019B10121CEF8A0
:10345000301080BD0021CEF83010DEF8241040F28C
:103460002C4C01EB8103C2F2000C5CF823208AB1E2
:1034700001EB81020CEB820353F8042F5268181DF4
:1034800082421A6020D0D068CEF80000CEF8241016
:1034900080BD00BF0CEB8302A2F12803E1B15A69A1
:1034A00022BB012918D01A6812BB022914D053F884
:1034B000142CFAB903290FD053F8282C0439002A08
:1034C000A3F15003EAD0D3E752681A60D068CEF86F
:1034D0000000CEF8241080BD4FF0500080F311881A
:1034E000BFF36F8FBFF34F8FFEE700BF0139BFE718
:1034F0000239BDE70339BBE7B0B584B04EF2004CEA
:10350000CEF2000C4CF27021C4F20F11DCF800294D
:103510004B1C9A420AD14FF0500080F31188BFF340
:103520006F8FBFF34F8F00BFFEE700BFDCF80029AD
:103530008A4209D14FF0500080F31188BFF36F8F9A
:10354000BFF34F8FFEE700BF9CF800100291FF21F0
:103550008CF800109CF800108DF807109DF80710EB
:1035600001F0500240F22421C2F200010A70072249
:103570004A609DF90720B2F1FF3F69DC032200BFDA
:10358000D31C4B609DF8070040008DF807009DF9A3
:103590000700B0F1FF3F23DC931C4B609DF8070050
:1035A00040008DF807009DF90700B0F1FF3F17DCE0
:1035B000531C4B609DF8070040008DF807009DF9F3
:1035C0000700B0F1FF3F0BDC4A609DF80700043AAA
:1035D00040008DF807009DF907000028D0D4131D86
:1035E000032B35D14FF44070486002988CF80000EE
:1035F000DCF8200940F47000CCF82009DCF8200940
:1036000040F07040CCF82009FFF732FD40F2E404AE
:10361000C2F2000400252560FFF77AFC4EF63470F4
:10362000CEF20000016841F040410160FFF742F82E
:10363000FFF704FF039520684FF0500181F31188D4
:10364000BFF36F8FBFF34F8F013011D0FEE700BF84
:103650004FF0500080F31188BFF36F8FBFF34F8F8F
:10366000FEE700BF039830B9039820B9039810B95A
:1036700003980028F6D0002004B0B0BD80B54FF00C
:10368000500080F31188BFF36F8FBFF34F8F00F0AE
:1036900039FB30B14EF60450CEF200004FF08051AD
:1036A0000160002080F3118880BD000070B582B0F9
:1036B00070B11C46B3B1F9B9F2B14FF0500080F3CC
:1036C0001188BFF36F8FBFF34F8F00BFFEE700BFBE
:1036D0004FF0500080F31188BFF36F8FBFF34F8F0F
:1036E000FEE700BF4FF0500080F31188BFF36F8FEB
:1036F000BFF34F8FFEE700BF51B14AB94FF0500002
:1037000080F31188BFF36F8FBFF34F8FFEE700BFC9
:1037100050230193019B502B2ED1019B069E012328
:1037200084F84630002908BF22462260C4E90F0110
:10373000FFF7F8FB2068D4E90F12002502FB010314
:10374000013901FB0201A563C4E90103FF20E16027
:1037500084F8440084F8450004F11000FFF788FB6A
:1037600004F12400FFF784FBFFF700FC204684F8F7
:103770004C6002B070BD00BF4FF0500080F3118864
:10378000BFF36F8FBFF34F8FFEE700002DE9F04FBF
:1037900083B00292C0B11D4617460E460446E9B1F9
:1037A000022D03D1E06B012840F0888000F094FAEC
:1037B00010BB0FB34FF0500080F31188BFF36F8F31
:1037C000BFF34F8FFEE700BF4FF0500080F311882A
:1037D000BFF36F8FBFF34F8FFEE700BF206C002851
:1037E000DED04FF0500080F31188BFF36F8FBFF32E
:1037F0004F8F00BFFEE700BFFFF794FBA06B022DC9
:1038000066D0E16B884263D304F1100801206F4653
:103810000DF108090DE000BF2046FFF745F900F063
:1038200073FBFFF77FFBA06BE16B88424FF000005A
:103830004ED30299002973D0C00702D03846FFF753
:10384000F3FCFFF793FBFFF7F1FDFFF76BFB94F839
:103850004400FF2804BF002084F8440094F8450089
:10386000FF2804BF002084F84500FFF77FFB38469F
:10387000494600F073F9002858D1FFF753FBD4F8FC
:1038800038A0D4F83CB0FFF771FBDA45C4D10299F7
:103890004046FFF7DBFC2046FFF706F900F034FB5B
:1038A0000028BED14EF60450CEF200004FF08051F9
:1038B0000160BFF34F8FBFF36F8FB2E74FF050003F
:1038C00080F31188BFF36F8FBFF34F8FFEE700BF08
:1038D000A76B226CD2B19DB3E0683146FCF76DFD59
:1038E000E168206C2268091A9142E16003D2A16864
:1038F00040420844E060A81EB0FA80F04009394612
:10390000002F18BF012108403F1A26E0206800253B
:1039100020BBA06800F078FAA56005461EE000BF55
:10392000FFF724FB002003B0BDE8F08F2046FFF72F
:10393000BBF800F0E9FA002003B0BDE8F08F00BF4B
:1039400060683146FCF739FD216CD4E90102084476
:103950009042606001D3206860600025781CA063FD
:1039600054F8240FA0B1204600F094FA50B14EF65E
:103970000450CEF200004FF080510160BFF34F8F32
:10398000BFF36F8FFFF7F2FA012003B0BDE8F08FAD
:10399000002DF7D04EF60450CEF200004FF08051CB
:1039A0000160BFF34F8FBFF36F8FFFF7DFFA012086
:1039B00003B0BDE8F08F00002DE9F04F83B0029214
:1039C00090B116460D460446002947D000F084F910
:1039D000A0B99EB14FF0500080F31188BFF36F8FF4
:1039E000BFF34F8FFEE700BF4FF0500080F3118808
:1039F000BFF36F8FBFF34F8FFEE700BFFFF792FA61
:103A0000D4F838A0BAF1000F36D0226C52B1D4E904
:103A100002308118E160994224BF2168E1602846A4
:103A2000FCF7CBFCAAF10100A06354F8100F70B1B1
:103A3000204600F02FFA50B14EF60450CEF20000AE
:103A40004FF080510160BFF34F8FBFF36F8F0124A0
:103A5000FFF78CFA204603B0BDE8F08F206C0028F9
:103A6000B4D04FF0500080F31188BFF36F8FBFF3D5
:103A70004F8F00BFFEE700BF04F1240801206F460E
:103A80004FF000090DF1080B2EE000BFFFF76EFAB2
:103A9000FFF7CCFCFFF746FA94F84400FF2808BF74
:103AA00084F8449094F84500FF2808BF84F84590B6
:103AB000FFF75CFA3846594600F050F8E0B120466E
:103AC000FEF7F2FF00F020FAFFF72CFAA66BFFF7E3
:103AD0004DFA002E3CD0FFF725FAD4F838A000208C
:103AE000BAF1000F7FF491AF029949B3C007CDD06E
:103AF0003846FFF799FBC9E7FFF714FAA66BFFF703
:103B000035FA2EB12046FEF7CFFF00F0FDF9E2E7CF
:103B100002994046FFF79AFB2046FEF7C5FF00F0EA
:103B2000F3F90028D7D14EF60450CEF200004FF042
:103B300080510160BFF34F8FBFF36F8FCBE700BFA2
:103B40000024FFF713FA204603B0BDE8F08F00BF52
:103B50000024204603B0BDE8F08F0000B0B5D8B116
:103B60000D4619B30446FFF7DDF940F2501CC2F2CE
:103B7000000CDCF8182029684B1C21D0D4E9000E79
:103B8000DCF83830834221D072451FD30124FFF77F
:103B9000EDF92046B0BD00BF4FF0500080F3118812
:103BA000BFF36F8FBFF34F8FFEE700BF4FF05000A2
:103BB00080F31188BFF36F8FBFF34F8FFEE700BF15
:103BC0000024FFF7D3F92046B0BD00BFA2EB0E02E0
:103BD00091420DD9881A2860DCF838002060DCF8A2
:103BE000180060600024FFF7C1F92046B0BD00BF97
:103BF000002001242860FFF7B9F92046B0BD00007D
:103C00002DE9F04383B00746900098461546894653
:103C1000FEF784FFF8B106465C20FEF77FFFB8B1DF
:103C20000446DDE90A100022266384F85920CDE914
:103C30000010384649462A4643460294FEF7A6FC41
:103C40002046FEF719FB012003B0BDE8F08300BF5A
:103C50003046FFF7A3F94FF0FF3003B0BDE8F08323
:103C600070B586B00B9CCCB10C9E0EB35C25049550
:103C7000049D5C2D26D1049DDDF828C0022586F820
:103C8000595005AD3463CDE900C50296FEF77EFCC0
:103C90003046FEF7F1FA059806B070BD4FF05000BF
:103CA00080F31188BFF36F8FBFF34F8FFEE700BF24
:103CB0004FF0500080F31188BFF36F8FBFF34F8F29
:103CC000FEE700BF4FF0500080F31188BFF36F8F05
:103CD000BFF34F8FFEE7000040F25010C2F2000029
:103CE000016900290FBF01204069B0FA80F0400946
:103CF00018BF40007047000040F25010C2F20000B0
:103D0000806970472DE9F04381B040F25016C2F24D
:103D10000006706940B1706B00240130706320466A
:103D200001B0BDE8F08300BFB06910F10109C6F829
:103D3000189020D3F069006850B14FF0500080F324
:103D40001188BFF36F8FBFF34F8F00BFFEE700BF37
:103D5000F069316AF1613062B06B0130B063F069D3
:103D6000006828B1F069C068C068406802E000BF20
:103D70004FF0FF30F062F06A40F22C488145C2F209
:103D8000000801D200242EE0F0690024006813E04E
:103D9000F86A716A884288BF706200EB800008EBA5
:103DA00080002946FFF7A6F8F86A3168C96AF26907
:103DB000884228BF0124106890B1F069C068C768C4
:103DC0003D4655F8040F81450CD32846FFF722F8ED
:103DD000B86A0028DCD007F11800FFF71BF8D7E716
:103DE0004FF0FF30F0623068C06A00EB800058F896
:103DF0002000012888BF0124306B002818BF01244F
:103E0000204601B0BDE8F08370B588B140F250168D
:103E1000C2F2000604463068A0420BD04FF05000BA
:103E200080F31188BFF36F8FBFF34F8FFEE700BFA2
:103E3000002070BD206D18B3411EE06AE26C216560
:103E400090424FF0000008BF70BDC1B9251D284643
:103E5000FEF7E0FFE06CC0F13801E062A161716A39
:103E6000884240F22C4188BF706200EB8000C2F2B1
:103E7000000101EB80002946FFF73CF8012070BDEE
:103E80004FF0500080F31188BFF36F8FBFF34F8F57
:103E9000FEE7000070B5C068C5686DB105F1180493
:103EA0002046FEF7B7FF40F25016C2F200067069D6
:103EB00060B106F164001AE04FF0500080F3118801
:103EC000BFF36F8FBFF34F8FFEE700BF2C1D20465F
:103ED000FEF7A0FFE86A716A884240F22C4188BF71
:103EE000706200EB8000C2F2000101EB800021460D
:103EF000FFF700F8E86A3168C96A884292BF00207B
:103F00000120306370BD00002DE9F04140F25015F2
:103F1000C2F20005686968B1FFF704F86869013802
:103F20006861686980B10024FFF720F82046BDE889
:103F3000F08100BF4FF0500080F31188BFF36F8F06
:103F4000BFF34F8FFEE700BFE8680028EBD0686E34
:103F500088B340F22C46C2F200064FF0010800BFC1
:103F6000286FC76807F11800FEF754FF3C1D204674
:103F7000FEF750FFF86A696A884288BF686200EB02
:103F8000800006EB80002146FEF7B4FFF86A29683E
:103F9000C96A884228BFC5F83080686E0028DFD122
:103FA000E869006820B1E869C068C068406801E05D
:103FB0004FF0FF30E8626C6B4CB10126FFF7A2FEB8
:103FC000002818BF2E63013CF8D100206863286BDD
:103FD0000028A8D04EF60450CEF200004FF08051D9
:103FE0000160BFF34F8F0124BFF36F8FFEF7BEFF59
:103FF0002046BDE8F081000070B586B0FEF792FF64
:1040000040F2C816C2F20006306808BB06F114047C
:104010002046FEF72DFF06F128052846FEF728FF6B
:1040200040F23C3240F2DC33C6E902450025C2F2E0
:104030000002C2F200030A2010210095FFF736FBB0
:10404000306028B144F2DE01C0F60001FFF72AF823
:10405000FEF78CFF3068D8B10020CDE9040005A838
:1040600004A903AAFEF7F6FEDDE903200221059D5F
:10407000CDE9001042F21D70C0F6000009A1002336
:104080000295FFF7EDFD706010B1012006B070BD24
:104090004FF0500080F31188BFF36F8FBFF34F8F45
:1040A000FEE700BF546D722053766300F1EE100AF4
:1040B0004FF6FF71C0F2C03120EA010040F04070BD
:1040C000E1EE100A7047000000000000000001024D
:1040D0000304060708090000000001020304546DF0
:1040E000725100000841000800000020E8000000B4
:1040F000E8010008F0410008E8000020A05000009E
:104100000402000800000000010000001000000090
:104110000024F400000000201FF041047FFE410451
:1041200099300540193000001FF00004FFFE042004
:104130003FF810080000183010201424FEFE102054
:1041400030603870367052A850AC9126122410207E
:104150001020102000001C18F11010D01450FE1078
:10416000111030D038505414501E93F0101010100D
:10417000101010100000303020202024FBFE2020E2
:10418000202829FC3088E088A05020502020205092
:10419000E088430600000180010001000104FFFEE9
:1041A00001000100030002800440044008201010B8
:1041B000200EC00400002A88313C2288383822882A
:1041C000393822887FFE40048FE800407FFC008061
:1041D000038001005B76365D5B6D305D5B74355D41
:1041E000B6B3AA4CACECA7DEA46ABEC7AAAAAAAA18
:04000005080001AD41
:00000001FF
