:020000040800F2
:10000000100700204D020008691300089112000833
:10001000651300082505000801160008000000000F
:100020000000000000000000000000007113000844
:1000300029050008000000006D130008491400089D
:1000400067020008670200086702000867020008EC
:1000500067020008670200086702000867020008DC
:1000600067020008670200086702000867020008CC
:1000700067020008670200086702000867020008BC
:1000800067020008670200086702000867020008AC
:10009000670200086702000867020008670200089C
:1000A000670200086702000867020008670200088C
:1000B000670200086702000867020008670200087C
:1000C000670200086702000867020008670200086C
:1000D000670200086702000867020008670200085C
:1000E000670200086702000867020008670200084C
:1000F000670200086702000867020008670200083C
:10010000670200086702000867020008670200082B
:10011000670200086702000867020008670200081B
:10012000670200086702000867020008670200080B
:1001300067020008670200086702000867020008FB
:1001400067020008670200086702000867020008EB
:1001500067020008670200086702000867020008DB
:1001600067020008670200086702000867020008CB
:10017000670200086702000867020008000000002C
:1001800067020008670200086702000867020008AB
:10019000670200086702000867020008670200089B
:1001A00067020008670200086702000800F002F812
:1001B00000F03CF80AA090E8000C82448344AAF1C5
:1001C0000107DA4501D100F031F8AFF2090EBAE8C3
:1001D0000F0013F0010F18BFFB1A43F0010318477B
:1001E00098140000B8140000103A24BF78C878C1F1
:1001F000FAD8520724BF30C830C144BF04680C602D
:10020000704700000023002400250026103A28BF74
:1002100078C1FBD8520728BF30C148BF0B60704778
:100220001FB501F00FFA1FBD10B510BD00F03FF96A
:100230001146FFF7F5FF01F0E5F900F05DF903B4B1
:10024000FFF7F2FF03BC00F065F9000009488047A2
:1002500009480047FEE7FEE7FEE7FEE7FEE7FEE7A8
:10026000FEE7FEE7FEE7FEE704480549054A064BC0
:1002700070470000FD140008AD01000810010020C7
:1002800010070020100300201003002053EA020C86
:1002900000F069802DE9F04B4FF00006002B1FBFE6
:1002A000B3FA83F503FA05F424FA05F65E4012BFAB
:1002B0001643B2FA82F502FA05F4C5F120051EBF15
:1002C00022FA05FC44EA0C04203556EA044C4FEAB5
:1002D000144418BF641C4FF000084FF0000990420E
:1002E00071EB030C39D3002919BFB1FA81F701FA78
:1002F00007F6B0FA80F700FA07F6C7F120071EBF2D
:1003000020FA07FC46EA0C062037B6FBF4FCA7EB04
:100310000507103F07F01F0BCBF120062CFA06F65D
:100320000CFA0BFB44BFB3460026202FA4BF5E4649
:100330004FF0000B5BEA060C08BF4FF0010B19EB06
:100340000B0948EB0608ABFB027C06FB02CC0BFB5F
:1003500003CCC01B71EB0C01C1E70B4602464146C2
:100360004846BDE8F08B13B5084318BF4FF0FF3087
:100370000146AFF30080BDE81C40704710B5431C38
:1003800002E010F8011B71B18107FAD14FF0013280
:1003900002C88C1A8C4314EAC211F9D0C01A0A069A
:1003A00003D0C01E10BDC01A10BD0A0401D0801EAB
:1003B00010BD0902FCD0401E10BD032A40F230805F
:1003C00010F0030C00F0158011F8013BBCF1020F96
:1003D000624498BF11F801CB00F8013B38BF11F817
:1003E000013BA2F1040298BF00F801CB38BF00F82E
:1003F000013B11F0030300F02880083AC0F00880A8
:1004000051F8043B083A51F804CBA0E80810F5E78E
:10041000121D5CBF51F8043B40F8043BAFF3008071
:10042000D20724BF11F8013B11F801CB48BF11F8E6
:10043000012B24BF00F8013B00F801CB48BF00F8B6
:10044000012B704770477047704710B5203AC0F0D5
:100450000B80B1E81850A0E81850B1E81850A0E897
:100460001850203ABFF4F5AF5FEA027C24BFB1E830
:100470001850A0E8185044BF18C918C0BDE8104073
:100480005FEA827C24BF51F8043B40F8043B08BF7C
:100490007047D20728BF31F8023B48BF11F8012B43
:1004A00028BF20F8023B48BF00F8012B7047754673
:1004B00000F02CF8AE4605006946534620F00700D0
:1004C000854618B020B5FFF7CFFEBDE820404FF0BD
:1004D00000064FF000074FF000084FF0000BAC464D
:1004E000ACE8C009ACE8C009ACE8C009ACE8C00998
:1004F00021F007018D46704710B50446AFF3008028
:100500002046BDE81040FFF79ABE00000048704743
:100510001000002001491820ABBEFEE726000200B3
:1005200070470000FEE7000070470000EFF3108006
:1005300072B600BFFEE70000B0B5044600F0E4F874
:10054000054640F20000C2F200000078611C18BFAE
:10055000044400BF00F0D8F8401BA042FAD3B0BD5D
:100560002DE9F04F82B000F13E4242F2004502F127
:10057000FF77C4F202050A2243F6004E4FEAB7267F
:10058000A84208BF0922C4F2010E092E38BF4FEA63
:10059000B7220125002600274FF00008009208E04E
:1005A00008F101080437B8F1100F06F1020600F057
:1005B000A7800C6805FA08F914EA090FF0D0D1F801
:1005C00004B003220BF0030CACF10104B240012C87
:1005D0006FEA020A10D88268CC6802EA0A02B440C4
:1005E000224382604268CBF3001422EA090204FA33
:1005F00008F42243426005E0BCF1030F02D14FF042
:10060000030C20E0C2688C6802EA0A02B44022436C
:10061000BCF1020FC26016D16FF0030202EA580269
:100620000244D2F820C007F01C050F230C69AB4030
:100630002CEA030304FA05F52B431362D1F804B046
:1006400001250BF0030C02680CFA06F302EA0A0219
:100650001A431BF4403F0260A2D0002243F6440339
:100660000192C4F202031A684FF6084C42F4804229
:100670001A601A68CFF6FF7C02F480420192019A58
:1006800028F00302724452F80C3007F00C050F24D6
:10069000AC40A343009C04FA05F52B4342F80C3010
:1006A000DEF808204B6842EA090543F60C4CDC02F0
:1006B00058BF22EA0905CEF80850C4F2010CDCF854
:1006C00000209C0242EA090558BF22EA0905CCF83D
:1006D0000050DEF804209C0342EA090558BF22EAD4
:1006E0000905CEF80450DEF80020DB0342EA0905D4
:1006F00058BF22EA0905CEF80050012550E700BF97
:1007000002B0BDE8F08F000040F20C10C2F2000011
:100710000068704740F2000040F20C11C2F2000085
:10072000C2F2000100780A681044086070470000B7
:1007300080B543F60040C4F20200016841F4007144
:100740000160016841F480610160016841F48071D9
:100750000160032000F074F8002000F005F800F0BC
:1007600027F8002080BD000070B540F20006C2F2FC
:10077000000640F208013278C2F200014FF47A73A9
:100780000968B3FBF2F20446B1FBF2F1084600F04F
:10079000BFFB0F2C4FF0010508D838B94FF0FF30E0
:1007A00021460022002500F01FF87460284670BD25
:1007B00082B0002043F640010190C4F202014A6871
:1007C00042F480424A604A6802F480420192019AEF
:1007D0000090086840F080500860086800F0805081
:1007E0000090009802B0704710B54EF60C5CCEF247
:1007F000000CDCF80030C3F3022E8EF00704042C4A
:1008000028BF0424BEF103034FF0FF3E0EFA04F4A8
:1008100038BF0023A14399400EFA03F39A431143D2
:1008200000F00F0200F160430901043A03F564434C
:100830006244002848BF02F10C03197010BD00008B
:100840004EF60C51CEF200010A684FF6FF031A4033
:1008500060F30A2242F0806040F0FD70086070474B
:100860002DE9F041002800F08B8043F60808C4F21F
:1008700002080446D8F8F8030D4600F00F0088423D
:1008800007D288F8F853D8F8F80300F00F00A84210
:1008900076D12068810717D5410705D5D8F8001013
:1008A00041F4E051C8F80010010705D5D8F8001050
:1008B00041F46041C8F80010D8F80010A26821F097
:1008C000F0011143C8F80010C0073FD1D8F8F80371
:1008D00000F00F00A84207D988F8F853D8F8F803B9
:1008E00000F00F00A8424BD12068410707D5D8F887
:1008F0000010E26821F4E0511143C8F8001000072D
:1009000008D5D8F80000216920F4604040EAC10011
:10091000C8F8000000F07CF8D8F8001041F25E62E0
:10092000C1F30311C0F60002515C40F2080220FA44
:1009300001F140F20400C2F200000068C2F20002BD
:100940001160FFF711FF0020BDE8F0816068811E93
:10095000022907D258F8081C89015CBF0120BDE8B4
:10096000F08111E0012807D158F8081C89035CBF09
:100970000120BDE8F08107E058F8081C890703D47E
:100980000120BDE8F08100BFD8F8001021F003017C
:100990000843C8F80000FFF7B7FE064641F2883763
:1009A000D8F80000616800F00C00B0EB810F8DD02A
:1009B000FFF7AAFE801BB842F2D90320BDE8F08100
:1009C00040F2080043F60801C2F20000C4F202013E
:1009D0000068096841F26E62C1F38221C0F600022C
:1009E000515CC8407047000040F2080043F608011F
:1009F000C2F20000C4F202010068096841F26E62AE
:100A0000C1F34231C0F60002515CC840704700009B
:100A100010B543F60404C4F20204606800F00C014F
:100A200042F200400829C0F2F40007D0042918BFA0
:100A300010BD41F20020C0F27A0010BD216801F023
:100A40003F02216823684902C3F3881106D4A1FB41
:100A500000010023FFF71AFC07E000BF41F200206D
:100A6000C0F27A004843B0FBF2F021680222C1F3E1
:100A7000014102EB4101B0FBF1F010BD2DE9F04165
:100A800082B0002868D00446007843F60006C0070C
:100A9000C4F202060BD0B06800F00C00042840F04D
:100AA0009F803068800302D56068002854D0207889
:100AB00080071AD5B06810F00C0F09D0B06800F0AC
:100AC0000C00082840F0A6807068400200F1A28067
:100AD0003068800702D5E06801283DD1306821697F
:100AE00020F0F80040EAC10030602078000737D4D9
:100AF000207840074CD4A56955B3B06800F00C00CD
:100B0000082840F0BB80012D26D07068E16900F410
:100B100080028A4220D1216A00F03F028A421BD122
:100B200047F6C071626A0140B1EB821F14D1A16A1D
:100B30004FF6FF73C903994300F44032A1F58031A9
:100B40008A4209D1E16A00F07060B0EB016F03D115
:100B5000002002B0BDE8F081012002B0BDE8F081C4
:100B60006069002840F20000C4F2472076D00121DD
:100B7000C0F8801EFFF7C8FD054600BF706F8007F4
:100B8000B6D4FFF7C1FD401B0228F7D9DDE000BF56
:100B9000306C10F080580AD100200190306C40F089
:100BA00080503064306C00F080500190019847F222
:100BB0000007C4F200073868C00541D4386840F423
:100BC00080703860FFF7A0FD054600BF3868C0059B
:100BD00036D4FFF799FD401B0228F7D9B5E000BFD6
:100BE000B06800F00C00082803D1706840023FF59F
:100BF00058AF6068B0F5803F07D0B0F5A02F40F047
:100C00008D80306840F480203060306840F480305F
:100C100030608DE0E068002852D00020C4F2472008
:100C200001210160FFF770FD054600BF30688007B5
:100C30003FF554AFFFF768FD401B0228F6D984E06A
:100C4000A068012805D005284ED1306F40F004007F
:100C50003067306F40F0010030674FE00021C0F88E
:100C6000801EFFF751FD0546706F80077FF540AF8E
:100C7000FFF74AFD401B0228F6D966E00027C4F2C0
:100C8000472700203866FFF73FFD022D05460BD1B0
:100C9000306880015ED5FFF737FD401B02284FF01A
:100CA0000300F5D955E700BF306880017FF550AFEC
:100CB000FFF72AFD401B02284FF00300F4D948E754
:100CC0000020C4F2472000210160FFF71DFD05460A
:100CD000306880077FF509AFFFF716FD401B02283B
:100CE0004FF00300F4D934E7316F002821F00101FF
:100CF0003167316F21F0040131674DD0FFF704FDFA
:100D0000054641F2883700BF306F800756D4FFF7A1
:100D1000FBFC401BB842F7D917E000BF3168002840
:100D200021F480313160316821F4802131604FD06D
:100D3000FFF7EAFC054600BF306880033FF5B7AE19
:100D4000FFF7E2FC401B6428F6D9032002B0BDE89F
:100D5000F08100BF04F11C052FCD084340EA82104A
:100D6000D9034FF6FF729143A1F5803140EA056047
:100D70000843706001203866FFF7C6FC044600BFD8
:100D8000306880013FF5E4AEFFF7BEFC001B02288F
:100D90004FF00300F4D9DCE6FFF7B6FC054641F25C
:100DA000883700BF306F800708D5FFF7ADFC401BC8
:100DB000B8424FF00300F5D9CBE600BFB8F1000F01
:100DC0007FF499AE306C20F08050306493E600BF21
:100DD000FFF79AFC054600BF306880037FF567AED9
:100DE000FFF792FC401B64284FF00300F4D9B0E6F3
:100DF00070B538B10446406A30B10020206104F17A
:100E0000140007E0012070BD6068B0F5827F03D058
:100E100004F11C00002101600026A66294F8510034
:100E200020B9204684F8506000F03CF8022084F895
:100E3000510094E80F0001F48271056802F4044245
:100E400025F040050560114403F400622369114454
:100E500003F002026369114403F00102A369E5692A
:100E6000114403F40072114405F03802256A11445C
:100E700005F08002A56A114305F400521143016098
:100E8000626A042101EA134102F010021144416038
:100E9000C16921F40061C1610120666584F85100D7
:100EA000304670BD80B586B0016843F20000C4F2E0
:100EB0000100814202D006B080BD00BF002143F690
:100EC00030020191C4F20202536900F5504043F42C
:100ED00080535361536903F480530193019B019143
:100EE000136843F001031360126802F001020192DB
:100EF000019AE02201920222CDE90221032104910C
:100F00000521059101A9FFF72BFB06B080BD00006C
:100F1000411E0020B0EB116F1CBF012070474EF244
:100F20001002CEF2000251604EF62351CEF20001C3
:100F3000F0230B700721906011607047002804BFF8
:100F40000120704710B5044690F83D0028B90020F4
:100F500084F83C00204600F021F8242084F83D006D
:100F60002068C16821F40051C160204600F0D0FA29
:100F70002068016921F490410161416921F02A0151
:100F80004161C16841F40051C1600020202120640A
:100F900084F83D1084F83E1010BD000080B586B086
:100FA000016841F20040C4F20100814202D006B063
:100FB00080BD00BF002143F630020191C4F202025D
:100FC000536900F5744043F020035361536903F003
:100FD00020030193019B0191136843F00403136004
:100FE000126802F004020192019AC02201920222C8
:100FF000CDE90221032104910821059101A9FFF700
:10100000AFFA06B080BD00002DE9F04381B0044680
:1010100090F83D0020280DD10F4600294FF0010027
:1010200000F0DD801646002A00F0D98094F83C00DC
:10103000012803D1022001B0BDE8F083012084F82B
:101040003C000020206421201D4684F83D00FFF76D
:101050005BFBA684E684A1680646B1F5805F03D1F8
:101060002069002800F01081B8460027002084F88D
:101070003C00E18C2068002900F0908005F1010916
:101080000DE000BFB8F1000F28D018F8011B416037
:10109000E18C0139E184E18C002900F07F80016856
:1010A0000906EFD4B9F1000F0AD0FDB1FFF72CFB10
:1010B000801BA8421AD8206801680906F6D5E1E726
:1010C00001680906DED4016809065CBF01685FEAB1
:1010D0000161D7D401680906F2D5D3E737F8021BBE
:1010E0004FF000086FF35F21D1E700BF206850E8A0
:1010F000030F216820F4D07041E80302BAB32068DE
:1011000050E8030F216820F4D07041E8030272B365
:10111000206850E8030F216820F4D07041E80302F2
:101120002AB3206850E8030F216820F4D07041E80A
:101130000302002ADAD11AE0206850E8050F21687E
:1011400020F0010041E80502DAB1206850E8050FFF
:10115000216820F0010041E8050292B1206850E8C2
:10116000050F216820F0010041E805024AB120681E
:1011700050E8050F216820F0010041E80502002A2F
:10118000DAD1202084F83D0084F83E00002084F865
:101190003C00032001B0BDE8F08300BF01684906B0
:1011A00019D4FDB1691C0DD10168490613D4016839
:1011B00049065CBF01685FEA41610CD401684906D9
:1011C000F2D508E0FFF7A0FA801BA8420AD82068F1
:1011D00000684006F6D5202084F83D00002001B0CC
:1011E000BDE8F083206850E8030F216820F4D07038
:1011F00041E80302E2B3206850E8030F216820F4BD
:10120000D07041E803029AB3206850E8030F2168C8
:1012100020F4D07041E8030252B3206850E8030F75
:10122000216820F4D07041E80302002ADAD11FE0DF
:10123000206850E8050F216820F0010041E8050210
:10124000002A9ED0206850E8050F216820F0010098
:1012500041E80502002A3FF494AF206850E8050FEA
:10126000216820F0010041E80502002A3FF489AF1F
:10127000206850E8050F216820F0010041E80502D0
:10128000002AD5D17DE700BF4FF00008EEE6000050
:10129000FEE7000083B0002043F630010290C4F264
:1012A00002010A6842F080020A600A6802F08002C5
:1012B0000292029A01900A6842F001020A600A68EA
:1012C00002F001020192019A0090086840F00400C7
:1012D0000860086800F004000090009803B07047B0
:1012E00080B540F2700043F20001C2F20000C4F287
:1012F00001014FF4827200234FF4007C80E80E005D
:101300000A21C0E90333C0E9053CC361C0E90833E1
:10131000C0E90A31FFF76CFD002808BF80BDBDE8B9
:101320008040FFF703B9000080B540F2C80041F2E9
:101330000041C2F20000C4F2010100234FF00C0C86
:101340004FF4165280E80E00C0E90333C0E905C32C
:10135000C361FFF7F3FD002808BF80BDBDE88040F2
:10136000FFF7E4B8FEE70000FEE70000704700006A
:10137000704700002DE9F0438DB0054608468846C9
:10138000FEF7FCFF0122FD218DF805202A01ADF8B2
:101390000210C11C01328DF804108DF80620514056
:1013A0006FF003025FFA80F9B9F1000F81EA0207DA
:1013B00032D0A9F10101032900F0030C04D200216D
:1013C000BCF1000F18D127E0ACEB090108F10103D3
:1013D0006FF003029E18F078347975797840043202
:1013E000B67960408F186840043786EA0007F1D16B
:1013F000111DBCF1000F0FD018F80120BCF1010F36
:1014000087EA020708D041444A78BCF1020F87EA14
:1014100002071CBF887847400DF10206701D414647
:101420004A46FEF7CAFF09EB0600477140F2C800C2
:1014300009F10602C2F2000031464FF47A73FFF759
:10144000E3FD0DB0BDE8F083FFF764B9B0B592B02D
:10145000002443F640000B94CDE90944CDE907444C
:101460000594CDE90344CDE901440094C4F202009F
:101470000168012241F0805101600068022500F0FE
:1014800080500090009847F200000094C4F20000E1
:10149000016862F38F310160006800F44040009001
:1014A000009810200A9008200E903220CDE90F05F8
:1014B0000720119006A806950992CDE90C54FFF774
:1014C000DDFA28B1EFF3108072B600BFFEE700BF6F
:1014D0000F20CDE901054FF4A05004904FF4805047
:1014E000059001A801210394FFF7BAF920B1EFF3A9
:1014F000108072B6FEE700BF12B0B0BD4EF6885045
:10150000CEF20000016841F47001016070470000F4
:1015100010B504460068D4E902C22369016921F4C8
:10152000405111430161626943EA0C01E3691143CF
:10153000C268194349F20C639A431143C16041697F
:10154000A26921F4407141F20043114340F48062EA
:10155000C4F201039A42416102D1FFF745FA01E06A
:10156000FFF72EFAE16963681922B1F5004FA0FB7D
:10157000020123D15A00DB0FFEF788FE48F21F510B
:10158000C5F2EB11A0FB01235A094FF69C73C0F67C
:10159000FF7303F1805302FB0300322303EBC0000F
:1015A000A0FB01014FF4F87000EA111000EB0210EB
:1015B000C1F3421108442168886010BD9A009B0F56
:1015C000FEF764FE48F21F51C5F2EB11A0FB0123A8
:1015D0005A094FF69C73C0F6FF7302FB03003223D7
:1015E00003EB0010A0FB0101F02000EA511000EB1A
:1015F0000210C1F3431108442168886010BD000047
:10160000FEE70000FFF794F8FFF720FFFFF742FE28
:10161000FFF766FEFFF788FE05A400BF0020214605
:10162000FFF7A8FE40F6B830FEF786FFF6E700BFEA
:101630005B76355D5B6D305D5B74335D74657374D3
:1016400000000000F1EE100A4FF6FF71C0F2C03149
:1016500020EA010040F04070E1EE100A70470000FF
:101660000000000000000102030406070809000052
:10167000000001020304000098160008000000208A
:1016800010000000E8010008A81600081000002063
:101690000007000004020008010000001000000024
:0816A0000024F400000000002A
:04000005080001AD41
:00000001FF
